:1000000000000320CD0400005D0500006105000034
:1000100059050000590500005905000000000000C6
:100020000000000000000000000000006505000066
:100030005905000000000000690500006D05000082
:100040007105000075050000790500007D050000C0
:100050008105000085050000890500008D05000070
:100060009105000095050000990500009D05000020
:10007000A1050000A5050000A9050000AD050000D0
:10008000B1050000590500005905000059050000A0
:1000900059050000590500005905000059050000E8
:1000A000B5050000B9050000BD050000C105000050
:1000B000C5050000C905000059050000CD05000078
:1000C000D1050000D5050000D9050000DD050000C0
:1000D000E1050000E5050000E90500005905000004
:1000E0005905000059050000590500005905000098
:1000F0005905000059050000590500005905000088
:100100005905000059050000590500005905000077
:100110005905000059050000590500005905000067
:100120005905000059050000590500005905000057
:100130005905000059050000590500005905000047
:1001400059050000ED050000F1050000F50500006F
:100150005905000059050000590500005905000027
:100160005905000059050000F9050000FD050000D3
:100170000106000005060000090600000D0600004B
:100180001106000015060000190600001D060000FB
:100190002106000025060000290600005905000080
:1001A0005905000059050000590500002D06000002
:1001B0005905000059050000310600003506000011
:1001C000390600003D06000041060000450600001B
:1001D00059050000590500005905000059050000A7
:1001E0005905000059050000590500005905000097
:1001F0005905000059050000590500005905000087
:100200005905000059050000590500005905000076
:1003F000590500005905000059050000FFFFFFFFE7
:10040000FFFFFFFFFFFFFFFFFFFFFFFFFEFFFFFFFD
:1004100010B5054C237833B9044B13B10448AFF33E
:1004200000800123237010BD6C00FF1F000000003E
:100430005C29000008B5034B1BB103490348AFF327
:10044000008008BD000000007000FF1F5C29000054
:10045000A3F5803A704700BF174B002B08BF134B22
:100460009D46FFF7F5FF00218B460F461348144ABF
:10047000121A01F08DFF0E4B002B00D098470D4B48
:10048000002B00D098470020002104000D000D48EB
:10049000002802D00C48AFF3008001F055FF200087
:1004A000290000F03BF901F03BFF00BF000008000D
:1004B0000000000000000000000003206C00FF1F8F
:1004C000C800FF1F000000000000000072B61648C0
:1004D000164901600A6882F3088815488047154963
:1004E000154A164B9A42BEBF51F8040B42F8040B52
:1004F000F8E7134A134B9A42BEBF51F8040B42F877
:10050000040BF8E7104B00209A42BCBF42F8040BE2
:10051000FAE70E490E4A00209142BCBF41F8040B95
:10052000FAE762B60B48804708ED00E000000000E3
:10053000AD220000842900000000FF1F6C00FF1F97
:100540006C00FF1F6C00FF1F6C00FF1F6C00FF1F83
:10055000C800FF1F59040000FFF7FEBF3A480047DC
:100560003A4800473A4800473A4800473A48004767
:100570003A4800473A4800473A4800473A48004757
:100580003A4800473A4800473A4800473A48004747
:100590003A4800473A4800473A4800473A48004737
:1005A0003A4800473A4800473A4800473A48004727
:1005B0003A4800473A4800473A4800473A48004717
:1005C0003A4800473A4800473A4800473A48004707
:1005D0003A4800473A4800473A4800473A480047F7
:1005E0003A4800473A4800473A4800473A480047E7
:1005F0003A4800473A4800473A4800473A480047D7
:1006000039480047384800473748004736480047D0
:1006100035480047354800473548004735480047CA
:1006200035480047354800473548004735480047BA
:1006300035480047344800473348004732480047B0
:1006400031480047304800475D0500006105000063
:1006500065050000690500006D05000059050000F2
:100660005905000059050000590500005905000012
:100670005905000059050000590500005905000002
:1006800059050000590500005905000059050000F2
:1006900059050000590500005905000059050000E2
:1006A00059050000590500005905000059050000D2
:1006B000590500005905000081210000590500007E
:1006C000BD21000059050000F92100005905000076
:1006D0003522000059050000590500007122000074
:1006E0005905000059050000590500005905000092
:1006F0005905000059050000590500005905000082
:10070000F92200005905000059050000034613F8BE
:10071000012B002AFBD1181A0138704780B582B02E
:1007200000AF00F04BF800F0D3F800F07FF8064877
:1007300000F03EF900F074F90346FB71FB791846AE
:1007400000F056F9F6E700BFA423000080B485B09E
:1007500000AF78607B681B0C03F1804303F58E23A8
:10076000FB60FB6819687B689BB201229A40FB68BA
:100770000A431A6000BF1437BD465DF8047B70471A
:1007800080B485B000AFF860B9601346FB71FB68B8
:10079000BA6853F8223023F4E062FB791B0203F4B9
:1007A000E06342EA0301FB68BA6843F8221000BF25
:1007B0001437BD465DF8047B7047000080B500AF7C
:1007C0001548FFF7C3FF1548FFF7C0FF07220221B6
:1007D0001348FFF7D5FF124B9B68114A23F0807333
:1007E00023F003039360032210210E48FFF7C8FF94
:1007F000032211210B48FFF7C3FF0B4B03F5805376
:1008000010331B68084923F0030201F580531033AD
:100810001A6000BF80BD00BF090038100A00381000
:100820000090044000A004400070044080B582B0F5
:1008300000AF00F05BFE78607B6801224FF4E1318D
:10084000002000F07BF800BF0837BD4680BD0000E7
:1008500080B400AF054B03F582530433044A1A6099
:1008600000BFBD465DF8047B704700BF00700440C8
:100870000000260280B483B000AF7860044A7B6831
:10088000136000BF0C37BD465DF8047B704700BFA6
:10089000A000FF1F80B483B000AF0346FB710B4B79
:1008A0001B78DBB223F03803DAB2FB79DB00DBB272
:1008B00003F03803DBB205491343DBB20B7000BF12
:1008C0000C37BD465DF8047B704700BF0040064012
:1008D00080B500AF00F002F800BF80BD80B500AF6A
:1008E000FFF7B6FF0F4801F017F80F4B1846FFF758
:1008F000C1FF022300210022184600F03FFF002321
:100900001846FFF7C7FF00230021084A184601F0E8
:10091000C5F8074800F0FEFD064B074A1A6000BF05
:1009200080BD00BF10280000001BB7000428000095
:10093000082800000800FF1F000E270780B588B0B8
:1009400000AFB9607B600346FB731346BB73BB7B90
:10095000012B01D0012321E0124ABB7B13747B6879
:100960003B61BB687B6100233B7600237B760123E0
:10097000BB760123FB7600233B7700237B77FB7B51
:10098000BB7707F110031946064800F0FFFA054B44
:10099000054A9A60034B054ADA600023184620375F
:1009A000BD4680BD8800FF1F61110000D51000000A
:1009B0000FB480B582B000AF0B4B1B7C002B02D173
:1009C0004FF0FF3309E007F114033B603A683969DF
:1009D000064800F0EBF878607B6818460837BD469B
:1009E000BDE8804004B070478800FF1FF109000097
:1009F00080B582B000AF7860084B1B7C002B02D121
:100A00004FF0FF3306E0054B9B68391D0122034878
:100A10009847012318460837BD4680BD8800FF1F50
:100A200080B582B000AF0C4B1B7C002B05D14FF082
:100A3000FF330DE04FF0FF330AE000BF064BDB68E9
:100A4000F91D0122044898470346002BF2D1FB7997
:100A500018460837BD4680BD8800FF1F80B586B0A8
:100A600000AFB9607A603B600346FB73BB687B6193
:100A70000BE0FA7B3B6A104698473B681B685A1CA0
:100A80003B681A607B6901337B617A697B689A42B3
:100A9000EFDB00BF00BF1837BD4680BD80B48DB00E
:100AA00000AFF860B9607A603B600023FB61FB68CF
:100AB000BB61BB695A1CBA6100221A707B68002BAB
:100AC00033D0BB681B68FB62FB6A002B29D1BB6972
:100AD00030221A70FB690133FB61FB6960E0FA6A3E
:100AE0003B6892FBF3F33B613B693A6802FB03F31B
:100AF000FA6AD31ABB62BB6A002B04DABB6AC3F181
:100B00003003BB6202E0BB6A3033BB623B69FB620D
:100B1000BB695A1CBA61BA6AD2B21A70FB69013356
:100B2000FB61FB6A002BDAD139E0BB681B687B6292
:100B30007B6A002B30D1BB6930221A70FB6901330C
:100B4000FB61FB692CE03B687A6AB2FBF3F37B61E3
:100B50003B687A6902FB03F37A6AD31A3B623B6A09
:100B6000092B03D83B6A30333B620AE097F83830F0
:100B7000002B01D0412200E061223B6A13440A3B72
:100B80003B627B697B62BB695A1CBA613A6AD2B22A
:100B90001A70FB690133FB617B6A002BD3D1FB69BF
:100BA00018463437BD465DF8047B704780B59CB06D
:100BB00002AFF860B9607A6000233B660023FB65F2
:100BC0000023FB61002387F84A3000237B61BB6868
:100BD0007B667B6E1B78002B00F0C0817B6E1B78E0
:100BE00087F8493097F84930252B0BD097F84920E2
:100BF000FB6810469847FB690133FB617B6E01334C
:100C00007B66AAE1012387F84B3000237B65002334
:100C100087F85B3020E07B6E01337B667B6E1B7850
:100C200087F8493097F849302F2B0FD997F849307A
:100C3000392B0BD87A6D13469B0013445B001A4680
:100C400097F849301344303B7B6505E07B6E013BF0
:100C50007B66012387F85B3097F85B3083F00103F4
:100C6000DBB2002BD7D17B6E01337B667B6E1B78AA
:100C70002E2B2ED100233B65002387F85B3020E02C
:100C80007B6E01337B667B6E1B7887F8493097F863
:100C900049302F2B0FD997F84930392B0BD83A6DA3
:100CA00013469B0013445B001A4697F849301344DF
:100CB000303B3B6505E07B6E013B7B66012387F89B
:100CC0005B3097F85B3083F00103DBB2002BD7D1A8
:100CD00002E07B6E013B7B667B6E01337B667B6E45
:100CE0001B7887F8493097F84930642B24D097F85F
:100CF0004930692B20D097F84930662B1CD097F8E3
:100D00004930462B18D097F84930782B14D097F8F3
:100D10004930582B10D097F849306F2B0CD097F8EA
:100D20004930622B08D097F84930702B04D097F8DF
:100D30004930752B40F0CA8097F84930642B03D0B6
:100D400097F84930692B15D17B681A1D7A601B68AA
:100D5000BB6107F1180107F1200097F84B300093B1
:100D60000A230122FFF79AFEF86507F12002FB6DC6
:100D700013443B6697F84930582B03D097F8493015
:100D8000782B1CD197F84930782B02D1002387F8B3
:100D90004B307B681A1D7A601B687B6107F1140178
:100DA00007F1200097F84B30009310230022FFF743
:100DB00075FEF86507F12002FB6D13443B6697F85A
:100DC00049306F2B0BD097F84930622B07D097F83A
:100DD0004930702B03D097F84930752B58D17B6878
:100DE0001A1D7A601B687B6197F84930623B132BB0
:100DF0003AD801A252F823F0510E0000690E00000B
:100E0000690E0000690E0000690E0000690E000006
:100E1000690E0000690E0000690E0000690E0000F6
:100E2000690E0000690E0000690E0000490E000006
:100E3000590E0000690E0000690E0000690E0000E6
:100E4000690E0000610E0000082387F84A300CE0AC
:100E5000022387F84A3008E0102387F84A3004E07C
:100E60000A2387F84A3000E000BF97F84A2007F1CC
:100E7000140107F1200097F84B300093134600222D
:100E8000FFF70CFEF86507F12002FB6D13443B668B
:100E90007A6D07F11C01FB6800930B46F96D202069
:100EA000FFF7DCFD3B6E002B54D00AE03B6E5A1E70
:100EB0003A661B781A46FB6810469847FB6901336F
:100EC000FB613B6E1B78002BF0D143E097F8493073
:100ED000632B0BD17B681A1D7A601B687B64FB68EF
:100EE000786C9847FB690133FB6133E097F8493030
:100EF000732B27D17B681A1D7A601B68FB64FB6C1F
:100F0000002B27D0F86CFFF701FC0346FB657A6DD8
:100F100007F11C01FB6800930B46F96D2020FFF7D9
:100F20009DFD0AE0FB6C5A1CFA641B781A46FB68AC
:100F300010469847FB690133FB61FB6C1B78002B63
:100F4000F0D107E097F84920FB6810469847FB6905
:100F50000133FB617B6E01337B663AE600BFFB69C0
:100F600018466837BD4680BD80B483B000AF786056
:100F70007B68002B01D1002301E042F6AF731846D5
:100F80000C37BD465DF8047B7047000080B588B023
:100F900000AF786039607B68002B05D1464B474A2B
:100FA000E121474801F06EF93B68002B05D1454B24
:100FB000424AE221424801F065F93B689B7B042BE1
:100FC00005D9414B3D4AE3213D4801F05BF93B68BF
:100FD0009B7B1A463D4B53F82230002B05D13C4BEE
:100FE000364AE421364801F04DF907F10803184666
:100FF00000F064FF3B685B68BB603B681B7A022BB8
:1010000002D102233B7308E03B681B7A032B02D119
:1010100003233B7301E000233B733B685B7A012BA6
:1010200002D101237B7301E000237B733B689B7A31
:10103000002B14BF01230023DBB23B753B68DB7A36
:10104000002B14BF01230023DBB2FB743B681B7B26
:10105000002B14BF01230023DBB23B743B685B7B96
:10106000002B14BF01230023DBB27B740023BB736E
:101070000123FB733B689B7B1A46144B53F82200F9
:101080003B681A6807F10803194600F08DFDF86106
:10109000FB69002B04D0F869FFF766FF034606E002
:1010A0007B68BB613B689A7BBB691A70002318465A
:1010B0002037BD4680BD00BFB42300002C280000AF
:1010C000BC230000242400002C2400001828000069
:1010D0007424000080B586B000AFF860B9607A6013
:1010E000FB68002B06D1184B184A40F23F111848F4
:1010F00001F0C8F8BB68002B06D1164B134A4FF419
:10110000A071134801F0BEF87B68002B06D1124B8A
:101110000E4A40F241110E4801F0B4F8FB687B61C1
:101120007B691B781A460D4B53F822307A68B968F0
:10113000184600F08BFF38613869FFF715FF03464A
:1011400018461837BD4680BDB42300003C28000077
:10115000BC23000098240000A024000018280000F0
:1011600080B586B000AFF860B9607A60FB68002B8C
:1011700006D1164B164A4FF4AA71164801F082F8B0
:10118000BB68002B06D1144B114A40F2551111488F
:1011900001F078F87B68002B06D1104B0C4A4FF415
:1011A000AB710C4801F06EF8FB687B617B691B78C2
:1011B0001A460B4B53F822307A68B968184600F08B
:1011C0001DFF002318461837BD4680BDB42300001C
:1011D00054280000BC23000098240000A024000034
:1011E0001828000080B483B000AF7860084B1B68FB
:1011F00023F440227B689B0403F4402304491343F7
:101200000B6000BF0C37BD465DF8047B704700BF24
:101210000070044080B485B000AFF860B9607A60B7
:10122000114B03F5805304331B6823F44032FB68F1
:101230001B0403F440330C491A4301F58053043373
:101240001A60BB685B0003F00E027B6803F00103C9
:1012500005491A4301F5835304331A6000BF14375C
:10126000BD465DF8047B70470070044080B485B0D3
:1012700000AF786039607B681B78FB73FB7B03F001
:101280005F03FB733B681A78FB7B1343FB737B683C
:10129000FA7B1A703B685B789B01DAB27B689A70C4
:1012A00000BF1437BD465DF8047B704780B485B03D
:1012B00000AF78600B46FB707B681B78FB73FB7B91
:1012C00023F00F03FB73FA7BFB781343FB737B68FC
:1012D000FA7B1A7000BF1437BD465DF8047B704777
:1012E00080B582B000AF1A4B1B7BDBB203F0030367
:1012F000022B22D0022B23D8002B02D0012B0ED0A0
:101300001EE0144B1B68002B05D1134B134ADE2142
:10131000134800F0B7FF0F4B1B687B6013E0114BC5
:101320001B68002B05D1104B0C4AE3210C4800F040
:10133000A9FF0C4B1B687B6005E00C4B7B6002E057
:1013400000237B6000BF7B6818460837BD4680BD20
:1013500000400640A000FF1FA82400006C280000E9
:10136000BC240000A400FF1F24250000006CDC0248
:1013700080B582B000AFFFF7B3FF7860254B1B78D4
:10138000DBB2DB08DBB203F00703FB70FB787A68A3
:1013900022FA03F37B601F4B5B78DBB21B09DBB2E5
:1013A00003F00303BB701B4B1B7BDBB203F0030397
:1013B0007B70BB78002B02D07B78002B02D07B782F
:1013C000022B21D1FB78072B14D0072B19DC052B1E
:1013D00002DC002B03DA14E0062B04D011E07B685A
:1013E0005B097B6011E07B680B4AA2FB03231B09AE
:1013F0007B600AE07B68094AA2FB0323DB087B6071
:1014000003E000237B6000E000BF7B6818460837DC
:10141000BD4680BD00400640CDCCCCCCABAAAAAA2C
:1014200080B483B000AF0E4B9B79DBB203F00103B5
:10143000002B03D10B4B1B687B600AE00A4B1A6838
:10144000074B1B7ADBB25B0803F0070322FA03F3B6
:101450007B607B6818460C37BD465DF8047B70479F
:10146000004006400000FF1F0400FF1F80B582B04F
:1014700000AF094B9B79DBB203F01003002B03D1C3
:10148000FFF776FF786002E0044B1B687B607B68A7
:1014900018460837BD4680BD004006400000FF1FCB
:1014A00080B500AFFFF71CFF0346184680BD000063
:1014B00080B485B000AF78607B6849F697029342AC
:1014C00002D80023FB7308E07B68074A934202D8E6
:1014D0000123FB7301E00223FB73FB7B18461437E7
:1014E000BD465DF8047B704700127A0080B500AFFE
:1014F00000F032F80246064B03F5825304331B68B2
:101500001B0F03F00F030133B2FBF3F3184680BD4A
:101510000070044080B582B000AF78600D497B68F0
:101520005A6801F5825304331A607B681B781846A9
:101530007B685B7819467B689B781A46FFF76AFEE2
:101540007B68DB781846FFF74DFE00BF0837BD46C5
:1015500080BD00BF0070044080B584B000AF214B57
:101560009B79DBB29B0803F00303BB601D4B9B7CA4
:10157000DBB21B0903F001037B60BB68032B29D896
:1015800001A252F823F000BFBD150000C5150000F0
:10159000CD150000991500007B68002B06D07B68F4
:1015A000012B07D100F0A8F8F86006E000F05EF823
:1015B000F86002E00023FB6000BF0EE000F014F8CA
:1015C000F8600AE0FFF72CFFF86006E0FFF788FEFE
:1015D000F86002E00023FB6000BFFB68184610378C
:1015E000BD4680BD0040064080B584B000AF1D4BB5
:1015F0005B78DBB203F00203002B06D1194B9B7919
:10160000DBB203F02003002B02D00023FB6024E0B8
:10161000FFF72CFFB860BB68002B02D1BB68FB60F2
:101620001BE0104BDB78DBB25B09DBB203F003039A
:10163000FB710C4BDB78DBB2DB09DBB203F001039F
:10164000BB71FA79BB7908495200134431F8133061
:101650001A46BB6802FB03F3FB60FB6818461037B1
:10166000BD4680BD004006408428000080B584B09F
:1016700000AF1D4B9B79DBB203F04003002B02D17E
:101680000023FB602BE0FFF70BFFB860BB68002B6B
:1016900006D1164B164A40F2DF31164800F0F2FD33
:1016A000114B1B79DBB203F00703DBB20133FB7193
:1016B000FB79BA68B2FBF3F3BB600B4B5B79DBB22F
:1016C00003F01F03DBB21033BB71BA79BB6802FBB6
:1016D00003F3BB60BB685B08BB60BB68FB60FB6877
:1016E00018461037BD4680BD00400640F425000076
:1016F00094280000BC24000080B400AF034B1B689A
:101700001846BD465DF8047B704700BF9C00FF1F74
:1017100080B485B000AF0346FB71174B1B7BDBB277
:1017200003F00302FB799A4202D00123FB7301E02C
:101730000023FB73104B1B7BDBB223F00303DAB2F5
:10174000FB7903F00303DBB20B491343DBB20B73EA
:10175000FB7B002B09D040F2DC53BB6000E000BFF4
:10176000BB685A1EBA60002BF9D100231846143703
:10177000BD465DF8047B70470040064080B485B0EC
:1017800000AF0346FB710B46BB7113467B713B4BAD
:101790009B79DBB29B0803F00303FB60374B9B791B
:1017A000DBB203F00103FB72344B1B7ADBB25B0844
:1017B000DBB203F00703BB727A79BB7A9A422CD072
:1017C0002E4B1B78DBB203F00203002B02D1FB6827
:1017D000012B12D1FB7A012B0FD1284B5B78DBB2A6
:1017E000264A23F00103DBB2537000BF234B9B79E1
:1017F000DBB203F00103002BF8D1204B1B7ADBB2E4
:1018000023F02F03DAB27B795B00DBB203F00E0327
:10181000DBB21A491343DBB20B72184B5B78DBB2B5
:1018200023F00103DAB2BB7903F00103DBB2134901
:101830001343DBB24B70114B1B78DBB223F0030375
:10184000DAB20E49FB791343DBB20B70FB68012B54
:1018500004D0FB7903F00203002B08D000BF074B34
:101860009B79DBB203F00102BB799A42F7D10023E6
:1018700018461437BD465DF8047B704700400640AB
:1018800080B584B000AF78607B68002B06D11E4B1A
:101890001E4A40F2FD411E4800F0F4FC0023FB7399
:1018A0007B685B7803F00703DAB2FB7B1343FB73BF
:1018B000184AFB7B1371174B5B79DBB223F01F03D4
:1018C000DAB27B689B7803F01F03DBB21149134344
:1018D000DBB24B710F4B1B79DAB27B681B78134379
:1018E000DBB20C4A43F04003DBB2137100BF094B7B
:1018F0009B79DBB203F04003002BF8D000BF00BFA0
:101900001037BD4680BD00BF00260000A82800009B
:10191000BC2400000040064080B584B000AF786071
:101920007B681B681846FFF7C3FD0346FB737B68A3
:101930001B7919461948FFF7B9FC194B5B78DBB2E4
:1019400023F03C03DAB2FB7B1B01DBB203F0300374
:10195000DBB21343DAB27B685B7911491343DBB224
:101960004B707B68063319460C48FFF77FFC7B6899
:101970005B79002B0DD0094B1B78DBB25BB2002BDF
:1019800007DA00BF064B9B79DBB203F00203002BA2
:10199000F8D000BF1037BD4680BD00BF00500640E4
:1019A0000040064080B582B000AF03463960FB714D
:1019B000FB79012B09D03B68002B06D1334B344A0D
:1019C00040F6A201334800F05DFC334B5B78DBB29C
:1019D000314A23F00203DBB253702F4B1B78DBB28A
:1019E00003F03B03DBB22C4A63F07F03DBB21370DE
:1019F00000BF294B9B79DBB203F01C03082BF8D105
:101A0000254B5B79DBB2244A23F04003DBB25371F0
:101A100000BF214B9B79DBB203F02003002BF8D1F0
:101A2000FB79002B02D13868FFF72AFF1A4B5B794C
:101A3000DBB2194A43F04003DBB25371164B1B7CF7
:101A4000DBB223F01003DAB2FB791B01DBB203F047
:101A50001003DBB210491343DBB20B7400BFFA79F9
:101A60000D4B9B7CDBB21B0903F001039A42F6D1BC
:101A700000BF094B9B79DBB203F02003002BF8D0A9
:101A8000002318460837BD4680BD00BF0026000071
:101A9000BC280000BC2400000040064080B582B095
:101AA00000AF03463A60FB710B46BB71BB79012B5B
:101AB00009D03B68002B06D1124B134A40F6C511E2
:101AC000124800F0DFFBFB791846FFF721FEBB79D7
:101AD00039681846FFF766FF0D4B1B78DBB20C4ADE
:101AE00003F03F03DBB2137000BF094B9B79DBB2FD
:101AF0009B0803F00303032BF7D100231846083794
:101B0000BD4680BD00260000D0280000BC24000097
:101B10000040064080B485B000AF78607B681B0C45
:101B200003F1804303F58E23FB60FB6819687B6833
:101B30009BB201229A40FB680A431A6000BF143727
:101B4000BD465DF8047B704780B584B000AF786017
:101B50000523BB600023FB6009E00F4AFB6852F8D5
:101B600023307A689A4207D0FB680133FB60FA6839
:101B7000BB689A42F1D300E000BFFA68BB689A42A2
:101B800005D3064B064A9121064800F07BFBFB6813
:101B900018461037BD4680BDE4280000102600001E
:101BA0000C2900002C26000080B58AB000AFF86038
:101BB000B9607A60BB68002B05D1544B544ADA21D6
:101BC000544800F05FFBBB681B68002B05D1524BEB
:101BD0004F4ADB214F4800F055FBFB684F4A9342C8
:101BE00019D0FB684E4A934213D0FB684D4A93428A
:101BF0000DD0FB684C4A934207D0FB684B4A934296
:101C000001D1012308E0FF2306E0012304E00123C2
:101C100002E0082300E00823BA689279934205DACB
:101C2000434B3B4ADD213B4800F02CFBFB683B4A21
:101C3000934219D0FB683A4A934213D0FB68394A61
:101C400093420DD0FB68384A934207D0FB68374A6D
:101C5000934201D1012308E0FF2306E0012304E0C1
:101C6000012302E0082300E00823BA68D2799342F6
:101C700005DA304B264ADE21264800F003FB00231C
:101C80007B62002387F823300023FB61BB681B685D
:101C90001B017A68B2FBF3F37B627B6A002B01D1F4
:101CA00001237B620023BB617B685A00BB681B6811
:101CB000B2FBF3F27B6A5B01D31A7B617B685A004B
:101CC0007B6A59017B690B44B2FBF3F3BB61BB68D0
:101CD0001B68BA699A4204D9BB681B68BA69D31AEF
:101CE00003E0BB681A68BB69D31AFB61BB681B6859
:101CF000114AA2FB03235A0913465B001344FA69F5
:101D00009A421BD940F2F533D2E000BF9C26000076
:101D1000202900002C260000A426000000A0064078
:101D200000B0064000C0064000D0064000A00E40B3
:101D3000BC260000042700001F85EB51F868FFF760
:101D400003FF03465C4A52F823301846FFF7E2FED1
:101D5000FB68DB78DBB223F00C03DAB2FB68DA70E5
:101D6000FB681B78DBB25BB223F01F035AB27B6ABD
:101D70001B0A5BB213435BB2DAB2FB681A707B6A70
:101D8000DAB2FB685A70FB689B7ADBB223F01F0360
:101D9000DAB27B69DBB203F01F03DBB21343DAB2C2
:101DA000FB689A72FB689B78DBB223F0170387F815
:101DB0002330BB689B7A9B00DBB203F00403DAB2EA
:101DC00097F82330134387F82330BB681B79002B27
:101DD00009D0BB681A7997F823301343DBB243F07C
:101DE000100387F82330FB6897F823209A70FB686C
:101DF0001B78DBB25BB223F020035AB2BB685B797D
:101E00005B01DBB25BB203F020035BB213435BB256
:101E1000DAB2FB681A70BB689A79FB68DA74BB683F
:101E2000DA79FB685A75FB681B7CDBB263F07703D9
:101E3000DAB2FB681A74FB685B7CDBB263F03F03C9
:101E4000DAB2FB685A74BB681B7A002B07D0FB68B8
:101E50005B7BDBB243F00803DAB2FB685A73BB6802
:101E60005B7A002B07D0FB685B7BDBB243F001039E
:101E7000DAB2FB685A73FB68DB7887F82330BB68FB
:101E8000DB7A002B05D097F8233043F0080387F85E
:101E90002330BB681B7B002B05D097F8233043F021
:101EA000040387F82330FB6897F82320DA700023B7
:101EB00018462837BD4680BDF828000080B582B09E
:101EC00000AF78607B68002B06D1174B174A4FF4A0
:101ED000C971174800F0D6F910220021786800F087
:101EE00057FA7B684FF4E1321A607B6800221A715E
:101EF0007B6800225A717B6800229A717B680122FC
:101F0000DA717B6800221A727B6800225A727B6841
:101F100000229A727B680022DA727B6800221A73B0
:101F200000BF0837BD4680BD9C2600002C2900005C
:101F30002C26000080B485B000AF78607B681B79E8
:101F4000DBB2FB607B685B79DBB21B02FA68134390
:101F5000FB607B681B7BDBB21B04FA681343FB60EE
:101F60007B689B7CDBB21B06FA681343FB60FB6853
:101F700018461437BD465DF8047B704780B584B0C1
:101F800000AF786039607B685B79FB72FB7A03F0A5
:101F90003F03FB723B681B0ADAB2FB7A1343DAB2E7
:101FA0007B685A713B681B0EDAB27B689A743B6897
:101FB00003F01F03002B0ED07B681B797B68DB7955
:101FC0007B6801229A747B685B7CDBB243F0400340
:101FD000DAB27B685A747868FFF7ACFF02463B6858
:101FE0001340002B03D040F2EE33FB6001E00023EE
:101FF000FB60FB6818461037BD4680BD80B485B0D5
:1020000000AFF860B9607A600CE000BFFB681B7934
:10201000DBB25BB2002BF9DABB685A1CBA601A78E3
:10202000FB68DA717B685A1E7A60002BEDD100BF25
:10203000FB681B79DBB203F04003002BF8D00023D0
:1020400018461437BD465DF8047B704780B586B0EE
:1020500000AFF860B9607A60BB68002B06D13B4BDB
:102060003B4A40F241313B4800F00CF900237B61D0
:1020700060E0F868FFF75EFF38613B6903F0080332
:10208000002B0DD00821F868FFF778FF0346002BDE
:1020900002D140F2F13301E040F2EE337B613FE0E8
:1020A0003B6903F00103002B0CD00121F868FFF716
:1020B00065FF0346002B02D14FF47D7301E040F22F
:1020C000EE337B613B6903F00203002B0CD002214D
:1020D000F868FFF753FF0346002B02D140F2F333B9
:1020E00001E040F2EE337B613B6903F00403002B17
:1020F0000CD00421F868FFF741FF0346002B02D102
:1021000040F2F23301E040F2EE337B617B69002B59
:1021100005D1FB689B7DDBB2002BAAD000E000BF9D
:102120007B69002B0CD1BB685A1CBA60FA68D27963
:10213000D2B21A707B685A1E7A60002BE9D100E097
:1021400000BF7B6918461837BD4680BD7427000064
:10215000442900002C26000080B500AF054B1B6809
:10216000054A1268114605489847BFF34F8F00BFD4
:1021700000BF80BDBC00FF1FA800FF1F00A00640DD
:1021800080B500AFFFF7E8FFBFF34F8F00BF00BF80
:1021900080BD000080B500AF054B1B68054A526842
:1021A000114605489847BFF34F8F00BF00BF80BD61
:1021B000BC00FF1FA800FF1F00B0064080B500AFA5
:1021C000FFF7E8FFBFF34F8F00BF00BF80BD0000E7
:1021D00080B500AF054B1B68054A9268114605485B
:1021E0009847BFF34F8F00BF00BF80BDBC00FF1FEB
:1021F000A800FF1F00C0064080B500AFFFF7E8FF52
:10220000BFF34F8F00BF00BF80BD000080B500AF9F
:10221000054B1B68054AD268114605489847BFF32D
:102220004F8F00BF00BF80BDBC00FF1FA800FF1F75
:1022300000D0064080B500AFFFF7E8FFBFF34F8F37
:1022400000BF00BF80BD000080B500AF054B1B681C
:10225000054A1269114605489847BFF34F8F00BFE2
:1022600000BF80BDBC00FF1FA800FF1F00A00E40E4
:1022700080B500AFFFF7E8FFBFF34F8F00BF00BF8F
:1022800080BD000080B586B002AFF860B9607A60AA
:102290003B607B680093BB68FA6839680248FEF7C8
:1022A00087FB00BEFDE700BFBC27000080B500AF84
:1022B0000B4BD3F888300A4A43F47003C2F88830D5
:1022C000084B4CF22052DA81064B4DF62812DA8187
:1022D000044B4FF4E9721A8000F006F800BF80BD8D
:1022E00000ED00E00020054080B400AF00BFBD4617
:1022F0005DF8047B7047000080B500AF054B1B689C
:10230000054A1268114605489847BFF34F8F00BF32
:1023100000BF80BDC400FF1FC000FF1F00400C4075
:1023200008B5074B044613B10021AFF30080054BFD
:102330001868836A03B19847204600F031F800BF5F
:10234000000000005829000070B50D4D0D4C641BB5
:10235000A4100026A64209D10B4D0C4C00F0FEFA49
:10236000641BA4100026A64205D170BD55F8043B9D
:1023700098470136EEE755F8043B98470136F2E7F7
:102380007C2900007C2900007C29000080290000B5
:1023900002440346934200D1704703F8011BF9E75A
:1023A000FEE700BF68656C6C6F20776F726C642EFF
:1023B0000D0A000068616E646C650000443A5C447C
:1023C000616E69654C5C5465656E73795C546565D6
:1023D0006E73795F332E365C4E58505F53444B5FBB
:1023E00076322E392E305C53444B5F322E392E30EC
:1023F0005F4D4B36364658314D3078787831385C01
:10240000636F6D706F6E656E74735C756172745C12
:1024100066736C5F616461707465725F756172741C
:102420002E630000636F6E6669670000636F6E66FF
:1024300069672D3E696E7374616E6365203C202868
:1024400073697A656F6628735F5561727441646160
:10245000707465724261736529202F2073697A65F3
:102460006F6628554152545F54797065202A292996
:1024700000000000735F556172744164617074659F
:1024800072426173655B636F6E6669672D3E696E4C
:102490007374616E63655D006461746100000000C7
:1024A0006C656E6774680000305520213D20675FC1
:1024B0007874616C3046726571000000443A5C4487
:1024C000616E69654C5C5465656E73795C546565D5
:1024D0006E73795F332E365C4E58505F53444B5FBA
:1024E00076322E392E305C53444B5F322E392E30EB
:1024F0005F4D4B36364658314D3078787831385C00
:10250000646576696365735C4D4B36364631385C7D
:10251000647269766572735C66736C5F636C6F631B
:102520006B2E6300305520213D20675F7874616C0D
:102530003332467265710000675F7874616C3046B3
:1025400072657100675F7874616C333246726571D1
:10255000000000006B434C4F434B5F557362537256
:102560006355736250666420213D207372630000DE
:102570004D43472D3E43312026204D43475F433195
:102580005F4952434C4B454E5F4D41534B00000059
:10259000284D43472D3E43322026204D43475F437D
:1025A000325F495243535F4D41534B29203D3D20FB
:1025B000305500004F5343302D3E43522026204FCC
:1025C00053435F43525F4552434C4B454E5F4D4131
:1025D000534B00002866726163203C3D2033355523
:1025E00029202626202866726163203E3D2031384E
:1025F000552900006D6367706C6C30636C6B000074
:10260000636F6E666967000066616C736500000049
:10261000696E7374616E6365203C207561727441EC
:1026200072726179436F756E74000000443A5C44C5
:10263000616E69654C5C5465656E73795C54656563
:102640006E73795F332E365C4E58505F53444B5F48
:1026500076322E392E305C53444B5F322E392E3079
:102660005F4D4B36364658314D3078787831385C8E
:10267000646576696365735C4D4B36364631385C0C
:10268000647269766572735C66736C5F756172748F
:102690002E63000068616E646C650000636F6E6697
:1026A00069670000636F6E6669672D3E62617564DD
:1026B000526174655F427073000000002875696E96
:1026C00074385F742946534C5F4645415455524512
:1026D0005F554152545F4649464F5F53495A456ED4
:1026E000286261736529203E3D20636F6E666967CD
:1026F0002D3E74784669666F57617465726D6172BC
:102700006B0000002875696E74385F742946534C5D
:102710005F464541545552455F554152545F4649C5
:10272000464F5F53495A456E286261736529203EC2
:102730003D20636F6E6669672D3E72784669666FED
:1027400057617465726D61726B000000626175643F
:10275000526174655F4270730000000062617365CE
:1027600020213D204E554C4C0000000064617461F6
:10277000000000006461746120213D204E554C4CE6
:102780000000000072696E6742756666657200003F
:102790007866657200000000786665722D3E64619F
:1027A000746153697A650000786665722D3E6461D4
:1027B00074610000636F756E7400000041535345EF
:1027C0005254204552524F52202220257320223A43
:1027D0002066696C652022257322204C696E652075
:1027E000222564222066756E6374696F6E206E61A7
:1027F0006D652022257322200A00000007020000D8
:1028000000000000000004000100000200001401AC
:10281000001BB7000004800000A0064000B0064086
:1028200000C0064000D0064000A00E4048414C5F6A
:1028300055617274496E69740000000048414C5F34
:102840005561727452656365697665426C6F636B3E
:10285000696E670048414C5F5561727453656E64E0
:10286000426C6F636B696E6700000000434C4F431E
:102870004B5F4765744D6367457874436C6B467274
:10288000657100008002DC020005B805800795082C
:10289000000A710B434C4F434B5F476574506C6C9F
:1028A0003046726571000000434C4F434B5F456EEC
:1028B00061626C65506C6C3000000000434C4F430B
:1028C0004B5F5365745062654D6F64650000000096
:1028D000434C4F434B5F426F6F74546F5065654D6F
:1028E0006F64650000A0064000B0064000C00640CE
:1028F00000D0064000A00E400A0034100B00341037
:102900000C0034100D0034100A00281055415254A8
:102910005F476574496E7374616E63650000000003
:10292000554152545F496E6974000000554152543C
:102930005F47657444656661756C74436F6E666964
:1029400067000000554152545F52656164426C6FEC
:10295000636B696E670000000C00FF1FF8B500BFD5
:10296000F8BC08BC9E467047F8B500BFF8BC08BC70
:042970009E467047C8
:08297400DCDAFF7F0100000026
:04297C00350400001E
:04298000110400003E
:102984000080000000093D0000004001000000003C
:102994000000000000000000000000000000000033
:1029A4000000000000000000000000000000000023
:1029B4000000000000000000000000000000000013
:1029C4000000000000000000000000000000000003
:1029D40000000000000000000000000000000000F3
:0C29E400000000000000000000000000E7
:04000003000004CD28
:00000001FF
